:100000003BC09FC154C053C052C051C050C04FC02C
:100010004EC04DC067C64BC04AC049C048C047C06B
:1000200046C045C044C00902120001010080190900
:10003000040000000000000012011001FF00000891
:10004000C016DC050401010200010E035500530037
:1000500042006100730070001C0377007700770096
:100060002E00660069007300630068006C002E00BB
:10007000640065000403090411241FBECFE5D4E029
:10008000DEBFCDBF10E0A0E6B0E0E0E1F5E102C0E8
:1000900005900D92A836B107D9F722E0A8E6B0E0A6
:1000A00001C01D92A83BB207E1F7D6D92FCAA8CF4D
:1000B000CF93DF9360919402635067FD13C08091EA
:1000C0009102CCE0D0E0C81BD109C856DD4F809129
:1000D00090028D3209F457C08091680087FD9BC063
:1000E000109294028091610084FF40C06091600092
:1000F0006F3F09F43BC0693008F46FC068506093EB
:1001000060008091840298E889278093840268E0E7
:100110008091680087FD1DC040919202509193022A
:1001200086FF70C0A5E8B2E0FA01962F84918D9306
:1001300031969150D9F72FEF260F30E02F5F3F4FC8
:10014000240F351F3093930220939202C4E0C60F10
:100150004FC085E892E02DD8682F893008F4A0C000
:100160008FEF80936000CEE1C093610094E186B38D
:10017000837031F49150D9F71092950210928F024A
:10018000DF91CF910895683009F0AACF83EC809376
:1001900084028AE5809361001092680088818076ED
:1001A00009F043C08A8110928D029981911147C054
:1001B00010928E022DE832E082E030939302209379
:1001C00092028F3FA9F19F81911104C09E819817DF
:1001D00008F4892F8093600083CF10926000809193
:1001E000840298E8892780938402611191CFC4E04A
:1001F00085E892E0A2D0CC3009F4B6CF8FEF80939F
:100200006000B2CFDA01E5E8F2E0962F8D9181939C
:100210009150E1F790CFCE014AD88F3FF9F0882373
:1002200009F45ECF109260005BCFCE0179D5C9CFC3
:10023000988197FD1DC090E890936800CBCF9530D2
:1002400089F0963009F19830D9F0993099F081E031
:100250009A3009F080E02DE832E0AFCF8EE1809354
:1002600061003ECF809395022DE832E080E0A5CF7B
:100270008E81E1CF809397022DE832E080E09DCF20
:1002800027E932E081E099CF9B819130F1F0923003
:10029000A1F0933041F080E090E49093680091CF1A
:1002A000C4E0C80FA5CF811118C084E790E09093F7
:1002B00093028093920284E0EFCF86E290E09093E5
:1002C00093028093920282E1E7CF88E390E09093DB
:1002D00093028093920282E1DFCF813051F082302D
:1002E000D1F68AE490E090939302809392028EE09C
:1002F000D3CF88E590E090939302809392028CE1B3
:10030000CBCF85B7836085BF8BB780648BBF0895E3
:10031000A82FB92F80E090E041E050EA609530E0EE
:1003200009C02D9182279795879510F084279527EE
:10033000305EC8F36F5FA8F30895EADF8D939D9355
:100340000895CF93CFB7CF93C395B09BE9F7B09BF8
:1003500009C0B09B07C0B09B05C0B09B03C0B09B59
:1003600001C0A1C0DF93C0919102DD27C856DD4FC7
:10037000B09B02C0DF91EBCF2F930F931F9306B377
:100380002FEF00FB20F94F933F9316B34FEF012758
:1003900000FB21F93BE031C04E7F012F16B32160F5
:1003A00028C0102F4D7F2260000006B329C04B7F6C
:1003B0002460012F000016B32BC016B3477F2860BE
:1003C0002AC04F7E06B320612CC04F7D16B3206239
:1003D0002FC04F7B06B3206432C0422706B3499337
:1003E0004FEF0000102710FB20F916B31370C9F16E
:1003F000297F91F2012700FB21F906B3237F89F2BF
:10040000315058F1102710FB22F916B3277E79F2EC
:10041000012700FB23F92F7C81F206B3102710FB84
:1004200024F92F7971F200C016B3012700FB25F9DA
:100430002F7359F200C006B3102710FB26F92230A3
:1004400040F200C016B3012700FB27F9243028F63C
:100450004F77206816B30000F9CF10E41ABF0027C9
:1004600017C03B503195C31BD04010E41ABF088120
:10047000033CE9F00B34D9F020918F021981110F60
:100480001213EDCF093641F10D3211F0013E39F76B
:10049000009396023F914F911F910F912F91DF9101
:1004A000CAB7C6FD51CFCF91CFBFCF91189520913C
:1004B0009602222379F310919402112311F534301E
:1004C00012F13093940220939002109191023BE03C
:1004D000311B3093910217C00091940201308CF4CB
:1004E0000AE53091610034FD10C000936100C4E85A
:1004F000D2E00FC02795A8F45150A9F4220F0000B4
:10050000F9CF4AE503C042ED01C0432FC4E1D0E07A
:1005100032E017B31360C09A17BB08B320E413E0AE
:100520005F93012756E008BB279520F4515021F432
:10053000220FF9CF012756E000003B5A08BBD0F24A
:10054000279528F4515029F4220F0000F9CF0127F4
:1005500056E0279508BB20F4515021F4220FF9CF23
:10056000012756E02991332308BB21F60C7F109117
:100570009502110FC651D04008BB11F010938F02A5
:1005800010E41ABF016017B31C7F402F4C7F5F91AE
:1005900000C000C008BB17BB48BB7CCF582F48E049
:1005A00080E057FD18C0C398550F880FB4998F5F2E
:1005B000C59A32B72091B30292B7931B9217E0F31A
:1005C000C59832B72091B30292B7931B9217E0F30C
:1005D000415039F70895C39AE7CF8FB9779BFECF83
:1005E0008FB1089521E196958795779567952A951E
:1005F000D1F72091B2022617D9F06093B202E091B0
:10060000AF02F091B0028DE40995E091AF02F09154
:10061000B00280E00995E091AF02F091B0028091C4
:10062000B2020995E091AF02F091B00280E0099426
:1006300008958091B1028DB98091AE028EB908956E
:100640008823A1F08830D0F52EEC32E03093B00250
:100650002093AF028430F1F008F18630C1F030F120
:100660008730A1F483E08093B30208958DEE92E089
:100670009093B0028093AF0281E08093B30282E551
:100680008093B10281E08093AE02089580EC809364
:10069000B302089588E18093B3020895823051F047
:1006A0008330A1F780E38093B30208958CE08093B8
:1006B000B302089580E68093B30208952DEE32E0F0
:1006C0003093B0022093AF021092AE0291E090936B
:1006D000B302893059F070F08B3021F08C3079F60C
:1006E0009093AE0281E58093B102089582E58093F4
:1006F000B1020895883019F683E58093B102089518
:1007000022B79091B30282B7821B8917E0F3089554
:1007100087B38C6287BBC298C59822B79091B30209
:1007200082B7821B8917E0F3C29A22B79091B30275
:1007300082B7821B8917E0F3C2988091AF02909133
:10074000B0028D5E924019F01092B202089580912D
:10075000B1028DB98091AE028EB91092B2020895A5
:1007600087B3837D87BB88B3837D88BB1DB808951D
:1007700080E187BB84E088BB80EC8DB90895CF937E
:10078000DF93C0E2E091AF02F091B0028CEA0995EC
:10079000E091AF02F091B00283E50995E091AF02DC
:1007A000F091B00280E00995D82FE091AF02F0916E
:1007B000B00280E00995D33561F11DB822B7909160
:1007C000B30282B7821B8917E0F3C29A22B79091D5
:1007D000B30282B7821B8917E0F3C29822B79091C7
:1007E000B30282B7821B8917E0F38091AF02909128
:1007F000B0028D5E924031F0C15021F681E0DF9170
:10080000CF9108958091B1028DB98091AE028EB9D9
:10081000F3CF80E0DF91CF910895CF92DF92EF92F6
:10082000FF926B017C01DEDE8C2D8170880F880FBA
:10083000880FE091AF02F091B00280620995D70174
:10084000C60139E0B695A795979587953A95D1F762
:10085000E091AF02F091B0020995D701C601B695BB
:10086000A79597958795E091AF02F091B002099511
:10087000E091AF02F091B00280E0FF90EF90DF9046
:10088000CF900994CF92DF92EF92FF920F931F9334
:10089000CF93DF931F92CDB7DEB76B017C01142F8E
:1008A0002983A0DE8C2D8170880F880F880FE0913E
:1008B000AF02F091B00280640995D701C60159E0FA
:1008C000B695A795979587955A95D1F7E091AF0280
:1008D000F091B0020995D701C601B695A7959795F5
:1008E0008795E091AF02F091B0020995E091AF02D7
:1008F000F091B002812F099529812223A9F01F3799
:1009000089F002B71EE1C701B60187DF8F3761F4B6
:1009100082B7801B8D3310F002B711501111F3CF45
:1009200081E003C08FE0B3D080E00F90DF91CF91E2
:100930001F910F91FF90EF90DF90CF900895CF928D
:10094000DF92EF92FF920F931F93CF93DF931F924B
:10095000CDB7DEB76B017C01498344DEE091AF0285
:10096000F091B0028CE40995D701C60179E0B69503
:10097000A795979587957A95D1F7E091AF02F09179
:10098000B0020995D701C601B695A79597958795A9
:10099000E091AF02F091B0020995E091AF02F091C1
:1009A000B00280E0099549814F3FE1F002B71EE1B6
:1009B000C701B60132DF8F3F99F482B7801B8D33B8
:1009C00010F002B711501111F3CF81E00F90DF91B9
:1009D000CF911F910F91FF90EF90DF90CF900895EE
:1009E00080E0F4CF8FE053D080E0F0CF1F93CF931F
:1009F000DF931F92CDB7DEB7182FE091AF02F091D1
:100A0000B00280EA99830995E091AF02F091B002BB
:100A10009981892F0995E091AF02F091B002812F61
:100A20000995E091AF02F091B00280E00F90DF9164
:100A3000CF911F9109941F93CF93DF9300D0CDB72F
:100A4000DEB7182FE091AF02F091B00280EC6A831C
:100A500099830995E091AF02F091B0029981892FB5
:100A60000995E091AF02F091B002812F0995E091D4
:100A7000AF02F091B0026A81862F09958EE107D00E
:100A800080E00F900F90DF91CF911F910895882300
:100A900049F030E022B792B7921B9C33E0F33F5FFE
:100AA0003813F8CF0895BD9ABB98C39A50E217D077
:100AB0005A95E9F70895AC0188E605D0842F03D054
:100AC00089E601D0852F0FD028E030E0382780FB61
:100AD000869506D02A95D1F730FB02D000D06894D5
:100AE000BB98C39A16F0C398BB9AE091B402F091F8
:100AF000B5023197F0F7C59AE6B3E3FBE091B40293
:100B0000F091B5023197F0F7C598089520ECE7DF32
:100B100046F42A95E1F780E02AE1E5DF2A95E9F736
:100B2000DECF28E030E0DBDF869587F938272A958D
:100B3000D1F7D5DF27F9322772F3D1DFD0CFDB0130
:100B4000742FB9DF84E2BFDFE1DF8D937A95D1F7AF
:100B50000895DB01742FAFDF83EFB5DF8DE1B3DFE5
:100B600084E6B1DF8D91AFDF82E7ADDFCFDF807844
:100B7000D9F77A9589F708959B01AC01220F331FAD
:100B8000441F551F220F331F441F551F220F331FB1
:100B9000441F551F220F331F441F551F60E07BE188
:100BA00087EB90E091D42150310941095109BB27CD
:100BB000A52F942F832F80BD29B98EE880BD88E1B1
:100BC0008AB908955F9BFECF8CB108955D9BFECFDF
:100BD0008CB90895FC012081222339F031965D9B68
:100BE000FECF2CB921912111FACF089590916B007D
:100BF00080916C00981718F59058981B992371F004
:100C00005D9B0CC0E82FF0E0E351FF4F90818F5FB8
:100C10008F7780936C005D9BFECF9CB95F9B08959E
:100C20005F9BFECF9CB180916900E82FF0E0E35913
:100C3000FF4F90838F5F8F77809369000895981B93
:100C4000DDCF681718F0681B862F0895681B862F64
:100C5000840F08958091690090916A00891710F0BF
:100C6000891B08958058891B089580916B0090918D
:100C70006C00891710F0891B08958058891B08950E
:100C800090916B00E92FF0E0E351FF4F808381E00A
:100C9000890F8F7780936B00089590916900E92FF9
:100CA000F0E0E359FF4F808381E0890F8F778093D5
:100CB0006900089590916C00E92FF0E0E351FF4F37
:100CC00080819F5F9F7790936C00089590916A0058
:100CD000E92FF0E0E359FF4F80819F5F9F7790936A
:100CE0006A00089578941F920F920FB60F92112404
:100CF0008F939F93EF93FF9380917A019FB1E82F99
:100D0000F0E0E458FE4F90838F5F80937A01FF916B
:100D1000EF919F918F910F900FBE0F901F9018959C
:100D2000CF93DF93EC018981813009F44AC082308E
:100D300009F4C9C0833009F47CC0843009F44CC084
:100D4000873009F49BC0853009F439C1863009F435
:100D5000BEC0883009F4F5C0893009F435C18A3045
:100D600009F464C18B3009F489C18C3009F4A6C13F
:100D70008D3009F4B8C18E3009F4BAC18F3009F44E
:100D800034C1803109F459C18F3709F48CC18032E4
:100D900009F4CBC1823209F4CEC1813209F4ACC16D
:100DA000833309F4CEC1823309F4D5C1843309F405
:100DB000FBC1853309F4E6C18D3309F4EDC080E051
:100DC0002FC09A9B58C0809178013ADC109277012D
:100DD000A9989EDC80E024C080917701811112C027
:100DE0004B8150E0542F44278A81482B662757FDBA
:100DF0006095762F40937301509374016093750151
:100E0000709376018F8190E0982F88272E81822B16
:100E1000909372018093710182E0809379018FEF4A
:100E20002CE732E03093930220939202DF91CF912E
:100E30000895E091AF02F091B0028A810995809304
:100E40007C02E091AF02F091B0028B810995809312
:100E50007D02E091AF02F091B0028C810995809300
:100E60007E02E091AF02F091B0028D8109958093EE
:100E70007F0284E0D5CF85E0E3DBA8CF80917701C6
:100E8000811112C04B8150E0542F44278A81482B96
:100E9000662757FD6095762F409373015093740138
:100EA00060937501709376018F8190E0982F882769
:100EB0002E81822B909372018093710183E0809345
:100EC00079018FEFADCF4CDCA99A80E0A9CF80915A
:100ED0007701811112C04B8150E0542F44278A8141
:100EE000482B662757FD6095762F409373015093EA
:100EF000740160937501709376013C812D81822F7E
:100F00008F7080936E01822F807F40E1849FC001AB
:100F10001124830F911D9093700180936F0120FD28
:100F200080936D018F8190E0982F88272E81822BEE
:100F3000909372018093710181E0809379018FEF2A
:100F40006FCF80917701811112C04B8150E0542FF7
:100F500044278A81482B662757FD6095762F40935A
:100F60007301509374016093750170937601109230
:100F7000700110926F0110926E018F8190E0982F96
:100F800088272E81822B909372018093710184E0D7
:100F9000809379018FEF44CF85B3836085BBCAE02E
:100FA0008FEF75DD85B38F5F85BBC150C9F78CEFBF
:100FB00085BB8091660080937C0281E031CFDFDBCE
:100FC00080937C0281E02CCF81E0809377018A813D
:100FD0009B81AC81BD818093730190937401A09338
:100FE0007501B093760180E01BCF4B8150E0542F08
:100FF00044278A81482B662757FD6095762F4093BA
:1010000073015093740160937501709376018F8121
:1010100090E0982F88272E81822B909372018093E5
:10102000710185E0809379018FEFFACE8A818093F8
:10103000780110927C0281E0F3CE4B8150E0542F76
:1010400044278A81482B662757FD6095762F409369
:1010500073015093740160937501709376018F81D1
:1010600090E0982F88272E81822B90937201809395
:10107000710186E0809379018FEFD2CE8B8190E071
:10108000982F88272A81822B9093B5028093B402EF
:10109000C29ABA9A83E0FBDCC298A99880E1F7DC97
:1010A00002DD80E0BDCE81E080937C0210927D0263
:1010B00010927E0210927F0284E0B2CE80EC03DDBB
:1010C00080E001DD8AE0E3DCC29A85E0E0DCC298E2
:1010D00085E0DDDC87B3837D87BB88B3837D88BBF8
:1010E000A99A80E09DCE12DD80937C0281E098CEAB
:1010F0008A81E9DC80E094CE90917B0130917A0185
:10110000931709F45CCEACE7B2E080E0E92FF0E0A1
:10111000E458FE4F20812D939F5F8F5F3917C1F0F8
:101120008830A1F790937B017BCE22DB87E0809310
:10113000790180E075CEA99A13DB1092790180E0E5
:101140006FCE88DD811119C010927C0281E068CEDB
:1011500030937B0165CE8A818093660085B38C7F56
:1011600085BB95B38091660080958370892B85BB84
:101170008091660085DD80E053CEA8DD80937C02FF
:1011800081E04ECE6A817B818C819D81609362007B
:10119000709363008093640090936500EDDC83E5B9
:1011A00080937C0281E03CCE55DD80937C0281E01F
:1011B00037CEEF92FF920F931F93CF93DF93E62EDC
:1011C000509179012EEF250F223058F0553009F457
:1011D00051C08FEFDF91CF911F910F91FF90EF9052
:1011E00008956623E9F16091730170917401409153
:1011F000750120917601EC01F12C20C0CB01F6DBCA
:1012000088830091730110917401209175013091D0
:1012100076010F5F1F4F2F4F3F4F009373011093C5
:1012200074012093750130937601F3942196FE1496
:1012300061F050917901B801422F232F5230F1F61D
:10124000842F922FEADA8883DCCF87E08F1540F471
:101250008F2DDF91CF911F910F91FF90EF90089507
:10126000109279018E2DDF91CF911F910F91FF90F8
:10127000EF900895462FBC01809173019091740105
:101280005EDC009173011091740120917501309121
:1012900076010E0D111D211D311D00937301109358
:1012A000740120937501309376018E2D93CFDF92D8
:1012B000EF92FF920F931F93CF93DF939C01F62E33
:1012C00040917901413071F0443061F0463009F4C9
:1012D00096C08FEFDF91CF911F910F91FF90EF900C
:1012E000DF900895FF2009F4B5C05091730170910B
:1012F00074018091750190917601E901E12CD12C66
:1013000050C020916F0130917001232B09F054C01F
:1013100021E04881652FB6DA209171013091720188
:10132000215031093093720120937101232BE1F494
:101330001092790180916E0181FF3BC020916D0177
:1013400030E080916F01909170012817390789F181
:101350006091730170917401809175019091760193
:101360004881EDDADD24D39400917301109174016A
:1013700020917501309176010F5F1F4F2F4F3F4F26
:1013800000937301109374012093750130937601DB
:10139000E3942196EF1451F140917901502F712F70
:1013A000C901413009F4ADCF6881852F972F43DB08
:1013B000B3CFDD24D394D8CF20E04881652F62DA03
:1013C00080916D01815080936D018111A5CF609155
:1013D000730170917401809175019091760148813B
:1013E000AEDA80916F0180936D0196CF8D2DDF91E4
:1013F000CF911F910F91FF90EF90DF900895462FAE
:10140000BC018091730190917401A3DB8091730101
:1014100090917401A0917501B09176018F0D911D8D
:10142000A11DB11D8093730190937401A093750168
:10143000B093760180917101909172018F19910999
:101440009093720180937101892B21F4109279019C
:1014500081E040CF80E03ECF12BA18BA8BEF81BB5B
:101460008FEF87BB17BAC3E0C4BB8EEF85BB60911B
:1014700062007091630080916400909165007CDB54
:10148000C3BF3FD7789412E0C0E0D0E811D6809176
:1014900079018730B9F48091B6029091B702019733
:1014A0009093B7028093B602892B81F785B3812789
:1014B00085BBD093B702C093B602FAD5809179016B
:1014C000873049F393DBE2CFA1E21A2EAA1BBB1BA4
:1014D000FD010DC0AA1FBB1FEE1FFF1FA217B30700
:1014E000E407F50720F0A21BB30BE40BF50B661F16
:1014F000771F881F991F1A9469F7609570958095DA
:1015000090959B01AC01BD01CF010895F894FFCFE8
:08151000FF5A8025000058007D
:00000001FF
